{
  "_format": "hh-sol-artifact-1",
  "contractName": "FHEJack",
  "sourceName": "contracts/FHEJack.sol",
  "abi": [
    {
      "inputs": [
        {
          "internalType": "address",
          "name": "_oracle",
          "type": "address"
        }
      ],
      "stateMutability": "nonpayable",
      "type": "constructor"
    },
    {
      "inputs": [],
      "name": "ECDSAInvalidSignature",
      "type": "error"
    },
    {
      "inputs": [
        {
          "internalType": "uint256",
          "name": "length",
          "type": "uint256"
        }
      ],
      "name": "ECDSAInvalidSignatureLength",
      "type": "error"
    },
    {
      "inputs": [
        {
          "internalType": "bytes32",
          "name": "s",
          "type": "bytes32"
        }
      ],
      "name": "ECDSAInvalidSignatureS",
      "type": "error"
    },
    {
      "inputs": [],
      "name": "ReentrancyGuardReentrantCall",
      "type": "error"
    },
    {
      "inputs": [],
      "name": "ZamaProtocolUnsupported",
      "type": "error"
    },
    {
      "anonymous": false,
      "inputs": [
        {
          "indexed": true,
          "internalType": "address",
          "name": "player",
          "type": "address"
        },
        {
          "indexed": false,
          "internalType": "uint256",
          "name": "amount",
          "type": "uint256"
        }
      ],
      "name": "FaucetUsed",
      "type": "event"
    },
    {
      "anonymous": false,
      "inputs": [
        {
          "indexed": true,
          "internalType": "address",
          "name": "player",
          "type": "address"
        },
        {
          "indexed": true,
          "internalType": "uint256",
          "name": "gameId",
          "type": "uint256"
        },
        {
          "indexed": false,
          "internalType": "uint256",
          "name": "amount",
          "type": "uint256"
        }
      ],
      "name": "GameClaimed",
      "type": "event"
    },
    {
      "anonymous": false,
      "inputs": [
        {
          "indexed": true,
          "internalType": "address",
          "name": "player",
          "type": "address"
        },
        {
          "indexed": true,
          "internalType": "uint256",
          "name": "gameId",
          "type": "uint256"
        },
        {
          "indexed": false,
          "internalType": "uint256",
          "name": "betAmount",
          "type": "uint256"
        },
        {
          "indexed": false,
          "internalType": "euint64",
          "name": "seed",
          "type": "bytes32"
        }
      ],
      "name": "GameStarted",
      "type": "event"
    },
    {
      "inputs": [],
      "name": "FAUCET_AMOUNT",
      "outputs": [
        {
          "internalType": "uint256",
          "name": "",
          "type": "uint256"
        }
      ],
      "stateMutability": "view",
      "type": "function"
    },
    {
      "inputs": [
        {
          "internalType": "address",
          "name": "",
          "type": "address"
        }
      ],
      "name": "balances",
      "outputs": [
        {
          "internalType": "uint256",
          "name": "",
          "type": "uint256"
        }
      ],
      "stateMutability": "view",
      "type": "function"
    },
    {
      "inputs": [
        {
          "internalType": "uint256",
          "name": "gameId",
          "type": "uint256"
        },
        {
          "internalType": "uint256",
          "name": "amount",
          "type": "uint256"
        },
        {
          "internalType": "bytes",
          "name": "signature",
          "type": "bytes"
        }
      ],
      "name": "claimWinnings",
      "outputs": [],
      "stateMutability": "nonpayable",
      "type": "function"
    },
    {
      "inputs": [],
      "name": "confidentialProtocolId",
      "outputs": [
        {
          "internalType": "uint256",
          "name": "",
          "type": "uint256"
        }
      ],
      "stateMutability": "view",
      "type": "function"
    },
    {
      "inputs": [],
      "name": "faucet",
      "outputs": [],
      "stateMutability": "nonpayable",
      "type": "function"
    },
    {
      "inputs": [
        {
          "internalType": "uint256",
          "name": "",
          "type": "uint256"
        }
      ],
      "name": "gameClaimed",
      "outputs": [
        {
          "internalType": "bool",
          "name": "",
          "type": "bool"
        }
      ],
      "stateMutability": "view",
      "type": "function"
    },
    {
      "inputs": [
        {
          "internalType": "address",
          "name": "",
          "type": "address"
        }
      ],
      "name": "lastClaimTime",
      "outputs": [
        {
          "internalType": "uint256",
          "name": "",
          "type": "uint256"
        }
      ],
      "stateMutability": "view",
      "type": "function"
    },
    {
      "inputs": [],
      "name": "oracle",
      "outputs": [
        {
          "internalType": "address",
          "name": "",
          "type": "address"
        }
      ],
      "stateMutability": "view",
      "type": "function"
    },
    {
      "inputs": [],
      "name": "owner",
      "outputs": [
        {
          "internalType": "address",
          "name": "",
          "type": "address"
        }
      ],
      "stateMutability": "view",
      "type": "function"
    },
    {
      "inputs": [
        {
          "internalType": "address",
          "name": "_newOracle",
          "type": "address"
        }
      ],
      "name": "setOracle",
      "outputs": [],
      "stateMutability": "nonpayable",
      "type": "function"
    },
    {
      "inputs": [
        {
          "internalType": "uint256",
          "name": "gameId",
          "type": "uint256"
        },
        {
          "internalType": "uint256",
          "name": "betAmount",
          "type": "uint256"
        }
      ],
      "name": "startGame",
      "outputs": [],
      "stateMutability": "nonpayable",
      "type": "function"
    }
  ],
  "bytecode": "0x608060405234801561001057600080fd5b50604051610f64380380610f6483398101604081905261002f9161028e565b6100e361003a61011b565b80517f9e7b61f58c47dc699ac88507c4f5bb9f121c03808c5676a8078fe583e464970080546001600160a01b03199081166001600160a01b039384161790915560208301517f9e7b61f58c47dc699ac88507c4f5bb9f121c03808c5676a8078fe583e46497018054831691841691909117905560408301517f9e7b61f58c47dc699ac88507c4f5bb9f121c03808c5676a8078fe583e46497028054909216921691909117905550565b600160008190558054336001600160a01b031991821617909155600280549091166001600160a01b03929092169190911790556102be565b6040805160608101825260008082526020820181905291810191909152466001036101765750604080516060808201835260008083526020808401829052928401819052835191820184528082529181018290529182015290565b4662aa36a7036101f65750604080516060808201835260008083526020808401829052928401528251908101835273f0ffdc93b7e186bc2f8cb3daa75d86d1930a433d81527392c920834ec8941d2c77d188936e1f7a6f49c1279181019190915273be0e383937d564d7ff0bc3b46c51f0bf8d5c311a9181019190915290565b46617a6903610275575060408051606080820183526000808352602080840182905292840152825190810183527350157cffd6bbfa2dece204a89ec419c23ef5755d815273e3a9105a3a932253a70f126eb1e3b589c643dd249181019190915273901f8942346f7ab3a01f6d7613119bca447bb0309181019190915290565b6040516373cac13b60e01b815260040160405180910390fd5b6000602082840312156102a057600080fd5b81516001600160a01b03811681146102b757600080fd5b9392505050565b610c97806102cd6000396000f3fe608060405234801561001057600080fd5b50600436106100a95760003560e01c80638927b030116100715780638927b0301461013d5780638da5cb5b14610145578063ac9fa22e14610158578063b77cf9c61461016b578063de5f72fd1461018b578063e12451581461019357600080fd5b806327e235e3146100ae578063730b8381146100e157806376697640146100f65780637adbf973146100ff5780637dc0d1d014610112575b600080fd5b6100ce6100bc366004610a90565b60036020526000908152604090205481565b6040519081526020015b60405180910390f35b6100f46100ef366004610ab9565b6101c6565b005b6100ce6101f481565b6100f461010d366004610a90565b610334565b600254610125906001600160a01b031681565b6040516001600160a01b0390911681526020016100d8565b6100ce61039f565b600154610125906001600160a01b031681565b6100f4610166366004610adb565b6103ae565b6100ce610179366004610a90565b60046020526000908152604090205481565b6100f46105af565b6101b66101a1366004610b5b565b60056020526000908152604090205460ff1681565b60405190151581526020016100d8565b6000811161020d5760405162461bcd60e51b815260206004820152600f60248201526e04265742063616e6e6f74206265203608c1b60448201526064015b60405180910390fd5b336000908152600360205260409020548111156102615760405162461bcd60e51b8152602060048201526012602482015271496e73756666696369656e7420636869707360701b6044820152606401610204565b60008281526005602052604090205460ff16156102b75760405162461bcd60e51b815260206004820152601460248201527311d85b5948125108185b1c9958591e481d5cd95960621b6044820152606401610204565b33600090815260036020526040812080548392906102d6908490610b8a565b90915550600090506102e6610687565b90506102f181610693565b506040805183815260208101839052849133917f43c37b1d5c6abb37fac25994ca6dc66506850c8cb5abdfb26631cb0cae468ea0910160405180910390a3505050565b6001546001600160a01b0316331461037d5760405162461bcd60e51b815260206004820152600c60248201526b155b985d5d1a1bdc9a5e995960a21b6044820152606401610204565b600280546001600160a01b0319166001600160a01b0392909216919091179055565b60006103a96106a2565b905090565b6103b66106d9565b60008481526005602052604090205460ff161561040c5760405162461bcd60e51b815260206004820152601460248201527311d85b5948185b1c9958591e4818db185a5b595960621b6044820152606401610204565b6040805160208082018790523360601b6bffffffffffffffffffffffff191682840152605480830187905283518084039091018152607490920190925280519101207f19457468657265756d205369676e6564204d6573736167653a0a3332000000006000908152601c829052603c8120905060006104c18286868080601f01602080910402602001604051908101604052809392919081815260200183838082843760009201919091525061070392505050565b6002549091506001600160a01b038083169116146105215760405162461bcd60e51b815260206004820152601860248201527f496e76616c6964204f7261636c65207369676e617475726500000000000000006044820152606401610204565b6000878152600560205260409020805460ff19166001179055851561056557336000908152600360205260408120805488929061055f908490610b9d565b90915550505b604051868152879033907f8d6970a149a7c4dd7ddaccde478938b260f32e39ac9de69013cea468e87c41309060200160405180910390a35050506105a96001600055565b50505050565b336000908152600460205260409020546105cc9062015180610b9d565b4210156106115760405162461bcd60e51b815260206004820152601360248201527215d85a5d080c8d1a08199bdc8819985d58d95d606a1b6044820152606401610204565b33600090815260036020526040812080546101f49290610632908490610b9d565b90915550503360008181526004602052604090819020429055517fc471df7d13ab46c73ec6eb2da0f35f84077f20d50243ba09a714b82cffc54de99061067d906101f4815260200190565b60405180910390a2565b60006103a9600561072f565b600061069e826107ed565b5090565b6000466001036106b25750600190565b4662aa36a7036106c3575061271190565b46617a69036106d3575060001990565b50600090565b6002600054036106fc57604051633ee5aeb560e01b815260040160405180910390fd5b6002600055565b60008060008061071386866108b7565b9250925092506107238282610904565b50909150505b92915050565b7f9e7b61f58c47dc699ac88507c4f5bb9f121c03808c5676a8078fe583e464970154604051636baeb74560e11b81526000917f9e7b61f58c47dc699ac88507c4f5bb9f121c03808c5676a8078fe583e4649700916001600160a01b039091169063d75d6e8a906107a3908690600401610bc6565b6020604051808303816000875af11580156107c2573d6000803e3d6000fd5b505050506040513d601f19601f820116820180604052508101906107e69190610bee565b9392505050565b6040805160018082528183019092527f9e7b61f58c47dc699ac88507c4f5bb9f121c03808c5676a8078fe583e4649700916000919060208083019080368337019050509050828160008151811061084657610846610c07565b60209081029190910101528154604051637d6e912360e11b81526001600160a01b039091169063fadd224690610880908490600401610c1d565b600060405180830381600087803b15801561089a57600080fd5b505af11580156108ae573d6000803e3d6000fd5b50505050505050565b600080600083516041036108f15760208401516040850151606086015160001a6108e3888285856109c1565b9550955095505050506108fd565b50508151600091506002905b9250925092565b600082600381111561091857610918610bb0565b03610921575050565b600182600381111561093557610935610bb0565b036109535760405163f645eedf60e01b815260040160405180910390fd5b600282600381111561096757610967610bb0565b036109885760405163fce698f760e01b815260048101829052602401610204565b600382600381111561099c5761099c610bb0565b036109bd576040516335e2f38360e21b815260048101829052602401610204565b5050565b600080807f7fffffffffffffffffffffffffffffff5d576e7357a4501ddfe92f46681b20a08411156109fc5750600091506003905082610a86565b604080516000808252602082018084528a905260ff891692820192909252606081018790526080810186905260019060a0016020604051602081039080840390855afa158015610a50573d6000803e3d6000fd5b5050604051601f1901519150506001600160a01b038116610a7c57506000925060019150829050610a86565b9250600091508190505b9450945094915050565b600060208284031215610aa257600080fd5b81356001600160a01b03811681146107e657600080fd5b60008060408385031215610acc57600080fd5b50508035926020909101359150565b60008060008060608587031215610af157600080fd5b8435935060208501359250604085013567ffffffffffffffff80821115610b1757600080fd5b818701915087601f830112610b2b57600080fd5b813581811115610b3a57600080fd5b886020828501011115610b4c57600080fd5b95989497505060200194505050565b600060208284031215610b6d57600080fd5b5035919050565b634e487b7160e01b600052601160045260246000fd5b8181038181111561072957610729610b74565b8082018082111561072957610729610b74565b634e487b7160e01b600052602160045260246000fd5b6020810160548310610be857634e487b7160e01b600052602160045260246000fd5b91905290565b600060208284031215610c0057600080fd5b5051919050565b634e487b7160e01b600052603260045260246000fd5b6020808252825182820181905260009190848201906040850190845b81811015610c5557835183529284019291840191600101610c39565b5090969550505050505056fea26469706673582212209ef30f8e448c8ac9065a925a1a5b561ab7e763643ab039c5e079bf85282e7dd364736f6c63430008180033",
  "linkReferences": {},
  "deployedLinkReferences": {}
}